:100000000C9462000C948A000C948A000C948A0070
:100010000C948A000C948A000C948A000C948A0038
:100020000C948A000C948A000C948A000C948A0028
:100030000C948A000C948A000C948A000C948A0018
:100040000C9485050C948A000C94F5050C94CF054E
:100050000C948A000C948A000C948A000C948A00F8
:100060000C9427060C948A0000000000240027004E
:100070002A000000000023002600290000000000E4
:10008000250028002B0004040404040404040202D4
:100090000202020203030303030301020408102007
:1000A0004080010204081020010204081020000012
:1000B0000008000201000003040700000000000027
:1000C0000000460711241FBECFEFD8E0DEBFCDBF32
:1000D00011E0A0E0B1E0E0E5F9E102C005900D9289
:1000E000AC39B107D9F723E0ACE9B1E001C01D920A
:1000F000AE36B207E1F710E0C2E6D0E004C02197C7
:10010000FE010E94C809C136D107C9F70E948F07B6
:100110000C94A60C0C940000833081F028F48130FC
:1001200099F08230A9F008958730A9F08830C9F09D
:100130008430B1F4809180008F7D03C08091800075
:100140008F7780938000089584B58F7784BD08955C
:1001500084B58F7DFBCF8091B0008F778093B00006
:1001600008958091B0008F7DF9CF1F93CF93DF93D7
:10017000282F30E0F901E255FF4F8491F901E6564E
:10018000FF4FD491F901EA57FF4FC491CC23A9F056
:10019000162F81110E948C00EC2FF0E0EE0FFF1F54
:1001A000E458FF4FA591B4918FB7F894EC911111D9
:1001B00008C0D095DE23DC938FBFDF91CF911F91D4
:1001C0000895DE2BF8CF3FB7F8948091B402909158
:1001D000B502A091B602B091B70226B5A89B05C0A2
:1001E0002F3F19F00196A11DB11D3FBFBA2FA92FB6
:1001F000982F8827BC01CD01620F711D811D911DB3
:1002000042E0660F771F881F991F4A95D1F708951E
:100210008F929F92AF92BF92CF92DF92EF92FF9216
:100220004B015C010E94E3006B017C010E94E30032
:100230006C197D098E099F09683E734081059105FF
:10024000A8F321E0821A9108A108B10888EEC80E2F
:1002500083E0D81EE11CF11C81149104A104B104B7
:1002600029F7FF90EF90DF90CF90BF90AF909F90D5
:100270008F90089508950895AF92BF92CF92DF9224
:10028000EF92FF920F931F93CF93DF936C017B014B
:100290008B01040F151FEB015E01AE18BF08C017DC
:1002A000D10759F06991D601ED91FC910190F0814F
:1002B000E02DC6010995892B79F7C501DF91CF9112
:1002C0001F910F91FF90EF90DF90CF90BF90AF9074
:1002D0000895FC01538D448D252F30E0842F90E04C
:1002E000821B930B541710F0CF9608950197089531
:1002F000FC01918D828D981761F0A28DAE0FBF2FFA
:10030000B11D5D968C91928D9F5F9F73928F90E04F
:1003100008958FEF9FEF0895FC01918D828D9817BE
:1003200031F0828DE80FF11D858D90E008958FEFFB
:100330009FEF0895FC01918D228D892F90E0805CC4
:100340009F4F821B91098F739927089588EB92E044
:100350000E949A0121E0892B09F420E0822F089560
:1003600080E090E0892B29F00E94A60181110C9475
:1003700000000895FC01A48DA80FB92FB11DA35A48
:10038000BF4F2C91848D90E001968F739927848FB5
:10039000A689B7892C93A089B1898C9183708064D8
:1003A0008C93938D848D981306C00288F389E02D79
:1003B00080818F7D80830895EF92FF920F931F932A
:1003C000CF93DF93EC0181E0888F9B8D8C8D981308
:1003D0001AC0E889F989808185FF15C09FB7F89414
:1003E000EE89FF896083E889F98980818370806460
:1003F00080839FBF81E090E0DF91CF911F910F91AB
:10040000FF90EF900895F62E0B8D10E00F5F1F4FB9
:100410000F731127E02E8C8D8E110CC00FB607FCC8
:10042000FACFE889F989808185FFF5CFCE010E9456
:10043000BA01F1CFEB8DEC0FFD2FF11DE35AFF4F09
:10044000F0829FB7F8940B8FEA89FB8980818062E4
:10045000CFCFCF93DF93EC01888D8823B9F0AA89A1
:10046000BB89E889F9898C9185FD03C0808186FD6F
:100470000DC00FB607FCF7CF8C9185FFF2CF8081BE
:1004800085FFEDCFCE010E94BA01E9CFDF91CF9178
:10049000089508952091DD01260F3327331F21325F
:1004A0003105ECF420912602FC0190E080E024303C
:1004B00069F082E00895A091DD012191AC014354DF
:1004C0005E4FA40FB52FB11D2C930196861798F39C
:1004D0008091DD01680F6093DD0180E0089581E087
:1004E00008951092260281E0809325021092000266
:1004F00061E082E10E94B50061E083E10E94B50005
:10050000E9EBF0E080818E7F808380818D7F808326
:1005100088E48093B80085E48093BC000895CF936D
:10052000DF9391E09093BC018823B9F0C091B800AB
:10053000D091BA008091BC008A7B8093BC0060E0BF
:1005400082E10E94B50060E083E10E94B5000E9454
:100550007102D093BA00C093B800DF91CF91089593
:100560000895E091550280915402E81730F4F0E0CC
:10057000E456FE4F808190E008958FEF9FEF08953D
:1005800090915502809154022FEF3FEF981748F455
:10059000E92FF0E0E456FE4F208130E09F5F90931A
:1005A0005502C90108958091540290915502891B0A
:1005B000990B0895CF92DF92EF92FF920F931F93C2
:1005C000CF93DF937C01CB018A0120912C0222235F
:1005D00089F0EB016B01C40ED51ECC15DD0569F069
:1005E0006991D701ED91FC910190F081E02DC70157
:1005F0000995F3CF642F0E944A02C801DF91CF9181
:100600001F910F91FF90EF90DF90CF900895CF93BF
:10061000DF931F92CDB7DEB7698320912C0222238E
:10062000F9F020915202203258F021E030E0FC0134
:100630003383228390E080E00F90DF91CF91089583
:1006400080915302E82FF0E0E35DFD4F99819083A4
:100650008F5F809353028093520281E090E0ECCF51
:1006600061E0CE0101960E944A02F7CFCF92DF925D
:10067000EF92FF920F931F93CF93DF93FC01C481FE
:1006800021E020932C02C0934D021092530210924D
:1006900052028485682B85E593E00E940703D09180
:1006A0005202D13208F092C00E94E3006B017C013B
:1006B00080912602811165C082E08093260281E04C
:1006C000809325028FEF8093240210922302D0930F
:1006D0002202ADE2B2E0E2E0F2E080E0D81385C0B1
:1006E0001092010280910102CC0FC82BC09301022D
:1006F00080910002813009F07CC0109200020E94BB
:10070000E3006B017C01809101028093BB0080912A
:10071000280290912902A0912A02B0912B02892BE4
:100720008A2B8B2B99F00E94E300009128021091F4
:10073000290220912A0230912B026C197D098E0921
:100740009F090617170728073907E0F18091BC00B9
:1007500083FDD9CF85EC8093BC000E94E3006B0140
:100760007C0180912602823009F445C080912402E8
:100770008F3F61F180912402803241F18091240207
:1007800025C08091280290912902A0912A02B0915F
:100790002B02892B8A2B8B2B09F48ACF0E94E30032
:1007A000009128021091290220912A0230912B02F7
:1007B0006C197D098E099F09061717072807390745
:1007C00008F076CF809127020E948F021092530288
:1007D0001092520210922C02DF91CF911F910F9133
:1007E000FF90EF90DF90CF9008959D9191938F5F50
:1007F00075CF85EEB0CF8091280290912902A0910B
:100800002A02B0912B02892B8A2B8B2B09F4A9CFBA
:100810000E94E300009128021091290220912A02EF
:1008200030912B026C197D098E099F090617170755
:100830002807390708F095CFC5CF90E080E00895EC
:10084000FC0101900020E9F73197AF01481B590BDB
:10085000BC0181E693E00C943C010F931F93CF936E
:100860008C01C62F0E9436036C2F6460C8010E9461
:1008700036036C2F6B7FC8010E94360383EC90E037
:100880000197F1F7CF911F910F9108950F931F9347
:10089000CF93DF938C01D62FC42F607F642B0E94EF
:1008A0002D0480E1D89FB00111246C2BC801DF9189
:1008B000CF911F910F910C942D04CF93DF93CDB75F
:1008C000DEB728970FB6F894DEBF0FBECDBF98E015
:1008D000E3E0F1E0DE01119601900D929A95E1F7C7
:1008E00090916903981708F48FEF90E0880F991F93
:1008F00021E030E02C0F3D1F820F931FFC0160812F
:10090000606840E081E693E028960FB6F894DEBF79
:100910000FBECDBFDF91CF910C94460440E061E063
:1009200081E693E00E9446048BE39FE10197F1F793
:1009300080916A03882319F080E00C945D04089587
:1009400041E00E94460481E090E0089585ED8093A7
:10095000BC008091280290912902A0912A02B091B6
:100960002B020796A11DB11D23E0B695A79597957B
:1009700087952A95D1F72091BC0024FD03C01092E1
:1009800026020895409128025091290260912A027E
:1009900070912B02452B462B472B69F30097A1053D
:1009A000B10541F02AE22A95F1F700C00197A109AB
:1009B000B109E1CF809127020C948F02AF92BF92D0
:1009C000CF92DF92EF92FF920F931F93CF93DF931B
:1009D000CDB7DEB7E6970FB6F894DEBF0FBECDBF3A
:1009E00080910001909101019E012B5E3F4F6901B2
:1009F0008E010A5D1F4F019779F58BE391E09F937C
:100A00008F9399E4E92E91E0F92EFF92EF92DF9215
:100A10002F930E94CE0980919D021F928F93809107
:100A20009E021F928F938FE491E09F938F93CE014C
:100A300001965C019F938F930E94CE09BF92AF9263
:100A4000FF92EF921F930F930E94CE090FB6F89476
:100A5000DEBF0FBECDBF28C081E691E09F938F938C
:100A600089E4E82E81E0F82EFF92EF92DF922F9337
:100A70000E94CE0980919C020F900F900F900F90D2
:100A80000F900F908F3F69F582E791E09F938F93CE
:100A9000FF92EF921F930F930E94CE090F900F9039
:100AA0000F900F900F900F9080E00E945D04C601A0
:100AB0000E94200481E00E945D04C8010E9420047D
:100AC000E6960FB6F894DEBF0FBECDBFDF91CF9193
:100AD0001F910F91FF90EF90DF90CF90BF90AF905C
:100AE00008951F928F9380E891E09F938F93CE019A
:100AF00001965C019F938F930E94CE09BF92AF92A3
:100B0000FF92EF921F930F939FCF1F920F920FB6FA
:100B10000F9211242F933F938F939F93AF93BF9383
:100B20008091B0029091B102A091B202B091B30253
:100B30003091AF0223E0230F2D3758F50196A11D08
:100B4000B11D2093AF028093B0029093B102A093A5
:100B5000B202B093B3028091B4029091B502A09119
:100B6000B602B091B7020196A11DB11D8093B402E7
:100B70009093B502A093B602B093B702BF91AF9124
:100B80009F918F913F912F910F900FBE0F901F90CB
:100B9000189526E8230F0296A11DB11DD2CF1F92F2
:100BA0000F920FB60F9211242F933F934F935F93A1
:100BB0006F937F938F939F93AF93BF93EF93FF9325
:100BC00088EB92E00E94BA01FF91EF91BF91AF9143
:100BD0009F918F917F916F915F914F913F912F9155
:100BE0000F900FBE0F901F9018951F920F920FB687
:100BF0000F9211242F938F939F93EF93FF93E09184
:100C0000C802F091C9028081E091CE02F091CF023A
:100C100082FD1BC090818091D1028F5F8F732091E4
:100C2000D202821741F0E091D102F0E0E854FD4F8A
:100C3000958F8093D102FF91EF919F918F912F918A
:100C40000F900FBE0F901F9018958081F4CF1F92C8
:100C50000F920FB60F9211242F933F934F935F93F0
:100C60006F937F938F939F93AF93BF93EF93FF9374
:100C70008091B900887F803609F44AC0F0F5883247
:100C800009F4A7C018F5803109F49BC0B8F4882393
:100C900009F4F9C0883009F494C0FF91EF91BF9135
:100CA000AF919F918F917F916F915F914F913F9104
:100CB0002F910F900FBE0F901F901895883109F457
:100CC00088C0803251F78093240214C0803409F424
:100CD0009DC040F48033B9F38833F9F68093240241
:100CE00085ECB0C0803509F485C0883509F496C01C
:100CF000883499F60E94A604D0CF883909F48CC0B4
:100D000038F5883729F050F4883611F0803729F605
:100D100083E0809326021092FF0157C0883809F4BF
:100D20007BC0803919F0803809F0B7CF8091FF017E
:100D3000803208F071C0E091FF0181E08E0F809356
:100D4000FF018091BB00F0E0E152FE4F80833DC087
:100D5000803B39F0E0F4803A09F479C0883A09F030
:100D60009CCF84E0809326021092DE011092DD0178
:100D7000E0915002F091510209958091DD018111BD
:100D80000FC081E08093DD011092BD0109C0803C5D
:100D900009F4A6CF883C09F4A3CF883B09F07DCFA6
:100DA000E091DE0181E08E0F8093DE01F0E0E354FC
:100DB000FE4F80818093BB009091DE018091DD0128
:100DC00029C0809101028093BB0085EC8093BC0018
:100DD00064CF9091230280912202981758F5E091F8
:100DE000230281E08E0F80932302F0E0EE5FFD4F3F
:100DF0008081E9CFE091230281E08E0F809323026E
:100E00008091BB00F0E0EE5FFD4F80839091230264
:100E1000809122029817C8F285E8D8CFE09123028A
:100E200081E08E0F809323028091BB00F0E0EE5FA3
:100E3000FD4F80838091250281115CCF81E08093FA
:100E4000000284EA8093BC001092260226CF85EC33
:100E50008093BC00109226028091FF01803230F412
:100E6000E091FF01F0E0E152FE4F10826091FF013E
:100E700070E0E0914E02F0914F028FED91E0099504
:100E80001092FF010ACF1092240234CFE8EBF2E077
:100E90001382128288EE93E0A0E0B0E08483958311
:100EA000A683B7832FE031E03183208325EC30E047
:100EB0003587248724EC30E03787268720EC30E024
:100EC000318B208B21EC30E0338B228B22EC30E015
:100ED000358B248B26EC30E0378B268B118E128ECF
:100EE000138E148EE5E5F3E01382128284839583DA
:100EF000A683B78381E291E091838083E1E6F3E00A
:100F00001382128283E391E091838083118687E2CA
:100F1000848380E1828782E08387148608957894B1
:100F200084B5826084BD84B5816084BD85B58260EE
:100F300085BD85B5816085BD80916E00816080939F
:100F40006E00109281008091810082608093810008
:100F50008091810081608093810080918000816018
:100F6000809380008091B10084608093B100809173
:100F7000B00081608093B00080917A00846080939B
:100F80007A0080917A00826080937A0080917A0062
:100F9000816080937A0080917A00806880937A00E3
:100FA0001092C100109255021092540210925302F6
:100FB000109252020E9471028AE391E090935102D2
:100FC000809350028BE391E090934F0280934E0206
:100FD0001092660380916C03823018F098E0909331
:100FE00066038093690362E370E080E090E00E9412
:100FF000080160916D0381E693E00E94360368EE7C
:1010000073E080E090E00E94080160E381E693E0F5
:101010000E942D04CBE4D6E4CE010197F1F760E302
:1010200081E693E00E942D042197F1F760E381E6C9
:1010300093E00E942D0483E592E00197F1F760E2CE
:1010400081E693E00E942D0460916603606240E0B7
:1010500081E693E00E94460484E08093670340E0C9
:101060006CE081E693E00E9446040E948E0482E0D8
:101070008093680340E066E081E693E00E944604C6
:1010800040E062E081E693E00E9446048BE39FE14A
:101090000197F1F788E080936D0360E081E693E0CB
:1010A0000E9436030E948E048FE891E00E94200483
:1010B0007CE9672E70E0772EF301249108E810E0B8
:1010C000F80184918823C1F090E0880F991FFC01FA
:1010D000E859FF4FA591B491FC01E458FF4FC59129
:1010E000D4919FB7F8943C91822F809583238C9361
:1010F0008881282B28839FBFE091C802F091C90204
:1011000082E08083E091C402F091C5021082E091F8
:10111000C602F091C7028FEC80831092D002E0915A
:10112000CC02F091CD0286E08083E091CA02F0917A
:10113000CB02808180618083E091CA02F091CB0272
:10114000808188608083E091CA02F091CB02808127
:1011500080688083E091CA02F091CB0280818F7D0C
:10116000808390EB492E90E0592E20E0E22E20E083
:10117000F22E33E0C32ED12C44E0A42EB12C8824CF
:101180008394912CF2018491F301C491F801D491DC
:10119000DD2309F45AC081110E948C00ED2FF0E08C
:1011A000EE0FFF1FEE58FF4FA591B4918C91C8230D
:1011B00031E020E009F430E0832F922FC82FC17076
:1011C000209102012223B1F0892BA1F4809100012A
:1011D000909101010197E1F582E090E09093010187
:1011E000809300010E94DE0468EC70E080E090E0F3
:1011F0000E940801C093020188EB92E00E949A01CC
:10120000C0919A02D0919B02181619060CF049C0A1
:1012100088EB92E00E947801C034D10568F72091F4
:10122000560230915702F901E85AFD4F80832F5F33
:101230003F4F2F7333273093570220935602219646
:10124000D0939B02C0939A02D7CF90E080E0B6CFB4
:1012500081E090E0C3CF2091980230919902F9018A
:10126000E85AFD4F80812F5F3F4F2F733327309314
:101270009902209398024150510950939B02409348
:101280009A022091AD023091AE022230310509F46C
:101290005FC0D0F421153105E9F12130310509F4A1
:1012A00042C040919A0250919B024115510599F616
:1012B000E114F10409F466CF0E94A601882309F421
:1012C00061CF0E9400005ECF2330310509F459C080
:1012D0002430310531F78535C1F49091AC0280910D
:1012E0009F02981312C08091AB02833070F08091FE
:1012F000A00280939E028091A10280939D02809122
:10130000A20280939C020E94DE041092AE02109210
:10131000AD02C7CF8A3A29F69092AE028092AD0212
:101320001092AC02BECF8093AB029091AC02980FAA
:101330009093AC021092AA02811107C083E090E062
:101340009093AE028093AD02ACCF82E090E0F8CFF4
:10135000E091AA0221E02E0F2093AA02F0E0E056CD
:10136000FD4F80839091AC02890F8093AC028091F5
:10137000AB02281708F495CFD092AE02C092AD020E
:1013800090CF80939F02B092AE02A092AD0289CF1F
:10139000EE0FFF1F0590F491E02D0994AEE0B0E050
:1013A000E4EDF9E00C947D0C0D891E8986E08C83B8
:1013B0001A8309838FEF9FE79E838D83AE01475E7B
:1013C0005F4F6F89788DCE0101960E94F1092F81C0
:1013D0003885020F131FF80110822E96E4E00C945A
:1013E000990CABE0B0E0E7EFF9E00C946F0C7C01F6
:1013F0003B018A01FC0117821682838181FFC8C1EB
:10140000CE0101965C01F7019381F30193FD859173
:1014100093FF81913F01882309F453C1853239F448
:1014200093FD859193FF81913F01853229F4B701A6
:1014300090E00E94E10BE7CF912C212C312CFFE1B1
:10144000F31538F08B3211F190F4803209F18332C8
:1014500029F137FC3CC020ED280F2A3050F536FE2C
:1014600020C08AE0989E200D1124922E06C08D3255
:1014700091F0803371F7689430F8F30193FD859112
:1014800093FF81913F018111DACF21C0689431F837
:10149000689432F8F2CF689433F8EFCF689434F858
:1014A000ECCFEAE02E9E200D1124222E689435F810
:1014B000E4CF8E3229F436FC04C1689436F8DDCFCF
:1014C0008C3619F4689437F8D8CF8836B1F2982F53
:1014D0009F7D95549330E0F08336A1F18337C1F1BD
:1014E000833509F063C02801F2E04F0E511CF8016A
:1014F000C080D180692D70E036FC02C06FEF7FEFB5
:10150000C6010E94CB0B4C01689437F882010AC0D7
:101510000C5F1F4FFFE3F98388248394912C6501AE
:10152000E89437F833FE2DC0522C8114910471F5E4
:10153000552009F468CFB70180E290E00E94E10BEA
:101540005A94F6CFF801808189830E5F1F4FE4CF54
:101550002801F2E04F0E511CF801C080D180692DA6
:1015600070E036FC02C06FEF7FEFC6010E94D60B21
:101570004C018201D5CFB70180E290E00E94E10BDF
:101580002A942814190409F0B0F7CECFF60137FCDD
:10159000859137FE81916F01B70190E00E94E10BC8
:1015A00051105A94F1E08F1A9108BFCF843619F088
:1015B000893609F077C0F80137FE6BC06081718110
:1015C000828193810C5F1F4FF32DFF763F2E97FF93
:1015D00009C090958095709561957F4F8F4F9F4F73
:1015E000689437F82AE030E0A5010E94110CC82E5B
:1015F000CA188C2C432C36FE0CC0E89440F8C91451
:1016000040F434FE05C032FC03C0F32DFE7E4F2EA5
:10161000892C44FE95C0FE01EC0DF11D80818033C4
:1016200009F087C0242D297E422E842D8870582EE3
:1016300043FC95C040FE8FC09C2C821418F42C0CE7
:10164000922C981844FE91C0B70180E390E00E946C
:10165000E10B42FE09C088E790E041FE02C088E548
:1016600090E0B7010E94E10BC91408F48AC0CA9443
:10167000D12C9FEFC91AD90ACA0CDB1CF601829142
:101680006F01B70190E00E94E10BAC14BD04B1F70B
:101690004FCF60817181072E000C880B990B0E5F74
:1016A0001F4F92CFD32CE894D4F82AE030E085374E
:1016B00039F1232D297FD22E8F3601F148F4883558
:1016C000A9F0F701868197812B96E2E10C948B0CAF
:1016D000803749F08837A9F7D4FE02C06894D2F861
:1016E00020E130E00DC06894D4F8F6CF34FE03C09A
:1016F000822F8660D82E20E132E002C028E030E060
:10170000F801D7FE0FC060817181828193810C5FE7
:101710001F4FA5010E94110CC82ECA183D2CE89439
:1017200037F867CF6081718190E080E00E5F1F4FD6
:10173000F0CF42FC02C0839478CF8394839475CF1A
:10174000842D867809F471CFF6CFB70180E290E05E
:101750000E94E10B83948214C0F3512C73CF522C5E
:101760005818821408F46ECFF8CF842D867809F4C7
:101770007BCF8BE241FE80E247FC8DE2B70190E037
:1017800071CFB70180E390E00E94E10B9A946CCF97
:101790008FEF9FEF99CFFC010590615070400110D1
:1017A000D8F7809590958E0F9F1F0895FC0161508A
:1017B000704001900110D8F7809590958E0F9F1F73
:1017C00008950F931F93CF93DF93182F092FEB01E9
:1017D0008B8181FD09C01FEF0FEF812F902FDF91CB
:1017E000CF911F910F91089582FF14C02E813F81E8
:1017F0008C819D81281739073CF4E881F981CF015C
:1018000001969983888310838E819F8101969F839F
:101810008E83E3CFE885F985812F0995892BA1F384
:10182000DACFFA01AA27283051F1203181F1E8946A
:101830006F936E7F6E5F7F4F8F4F9F4FAF4FB1E0C3
:101840003ED0B4E03CD0670F781F891F9A1FA11DBE
:10185000680F791F8A1F911DA11D6A0F711D811DBF
:10186000911DA11D20D009F468943F912AE0269F84
:1018700011243019305D3193DEF6CF010895462FE3
:101880004770405D4193B3E00FD0C9F7F6CF462FC4
:101890004F70405D4A3318F0495D31FD405241932D
:1018A00002D0A9F7EACFB4E0A695979587957795EA
:1018B0006795BA95C9F700976105710508959B0171
:1018C000AC010A2E06945795479537952795BA95FA
:1018D000C9F7620F731F841F951FA01D08952F92D3
:1018E0003F924F925F926F927F928F929F92AF92B0
:1018F000BF92CF92DF92EF92FF920F931F93CF93FD
:10190000DF93CDB7DEB7CA1BDB0B0FB6F894DEBF93
:101910000FBECDBF09942A88398848885F846E84B9
:101920007D848C849B84AA84B984C884DF80EE8003
:10193000FD800C811B81AA81B981CE0FD11D0FB60C
:10194000F894DEBF0FBECDBFED010895F894FFCF30
:10195000010001000040001400540000000000DC01
:10196000013C01690129029A0178018C0100000003
:10197000000703DA021D04B002D302C002B1020064
:10198000000000A0043C011D044902534953544582
:101990004D20445552554D5500252D313673004389
:1019A00050553A252525642052414D3A2525256478
:1019B000004147202F2050494E4720445552554D55
:1019C00055004261676C616E746920596F6B21002C
:1019D000476563696B6D653A202564206D7300531C
:0C19E000697374656D2048617A697200BB
:00000001FF
